{
  "_format": "hh-sol-artifact-1",
  "contractName": "AirdropToken",
  "sourceName": "src/AirdropToken.sol",
  "abi": [
    {
      "inputs": [
        {
          "internalType": "bytes32",
          "name": "_root",
          "type": "bytes32"
        },
        {
          "internalType": "address",
          "name": "initialOwner",
          "type": "address"
        }
      ],
      "stateMutability": "nonpayable",
      "type": "constructor"
    },
    {
      "inputs": [
        {
          "internalType": "address",
          "name": "sender",
          "type": "address"
        },
        {
          "internalType": "uint256",
          "name": "balance",
          "type": "uint256"
        },
        {
          "internalType": "uint256",
          "name": "needed",
          "type": "uint256"
        },
        {
          "internalType": "uint256",
          "name": "tokenId",
          "type": "uint256"
        }
      ],
      "name": "ERC1155InsufficientBalance",
      "type": "error"
    },
    {
      "inputs": [
        {
          "internalType": "address",
          "name": "approver",
          "type": "address"
        }
      ],
      "name": "ERC1155InvalidApprover",
      "type": "error"
    },
    {
      "inputs": [
        {
          "internalType": "uint256",
          "name": "idsLength",
          "type": "uint256"
        },
        {
          "internalType": "uint256",
          "name": "valuesLength",
          "type": "uint256"
        }
      ],
      "name": "ERC1155InvalidArrayLength",
      "type": "error"
    },
    {
      "inputs": [
        {
          "internalType": "address",
          "name": "operator",
          "type": "address"
        }
      ],
      "name": "ERC1155InvalidOperator",
      "type": "error"
    },
    {
      "inputs": [
        {
          "internalType": "address",
          "name": "receiver",
          "type": "address"
        }
      ],
      "name": "ERC1155InvalidReceiver",
      "type": "error"
    },
    {
      "inputs": [
        {
          "internalType": "address",
          "name": "sender",
          "type": "address"
        }
      ],
      "name": "ERC1155InvalidSender",
      "type": "error"
    },
    {
      "inputs": [
        {
          "internalType": "address",
          "name": "operator",
          "type": "address"
        },
        {
          "internalType": "address",
          "name": "owner",
          "type": "address"
        }
      ],
      "name": "ERC1155MissingApprovalForAll",
      "type": "error"
    },
    {
      "inputs": [
        {
          "internalType": "address",
          "name": "owner",
          "type": "address"
        }
      ],
      "name": "OwnableInvalidOwner",
      "type": "error"
    },
    {
      "inputs": [
        {
          "internalType": "address",
          "name": "account",
          "type": "address"
        }
      ],
      "name": "OwnableUnauthorizedAccount",
      "type": "error"
    },
    {
      "anonymous": false,
      "inputs": [
        {
          "indexed": true,
          "internalType": "address",
          "name": "account",
          "type": "address"
        },
        {
          "indexed": true,
          "internalType": "address",
          "name": "operator",
          "type": "address"
        },
        {
          "indexed": false,
          "internalType": "bool",
          "name": "approved",
          "type": "bool"
        }
      ],
      "name": "ApprovalForAll",
      "type": "event"
    },
    {
      "anonymous": false,
      "inputs": [
        {
          "indexed": true,
          "internalType": "address",
          "name": "previousOwner",
          "type": "address"
        },
        {
          "indexed": true,
          "internalType": "address",
          "name": "newOwner",
          "type": "address"
        }
      ],
      "name": "OwnershipTransferred",
      "type": "event"
    },
    {
      "anonymous": false,
      "inputs": [
        {
          "indexed": true,
          "internalType": "address",
          "name": "operator",
          "type": "address"
        },
        {
          "indexed": true,
          "internalType": "address",
          "name": "from",
          "type": "address"
        },
        {
          "indexed": true,
          "internalType": "address",
          "name": "to",
          "type": "address"
        },
        {
          "indexed": false,
          "internalType": "uint256[]",
          "name": "ids",
          "type": "uint256[]"
        },
        {
          "indexed": false,
          "internalType": "uint256[]",
          "name": "values",
          "type": "uint256[]"
        }
      ],
      "name": "TransferBatch",
      "type": "event"
    },
    {
      "anonymous": false,
      "inputs": [
        {
          "indexed": true,
          "internalType": "address",
          "name": "operator",
          "type": "address"
        },
        {
          "indexed": true,
          "internalType": "address",
          "name": "from",
          "type": "address"
        },
        {
          "indexed": true,
          "internalType": "address",
          "name": "to",
          "type": "address"
        },
        {
          "indexed": false,
          "internalType": "uint256",
          "name": "id",
          "type": "uint256"
        },
        {
          "indexed": false,
          "internalType": "uint256",
          "name": "value",
          "type": "uint256"
        }
      ],
      "name": "TransferSingle",
      "type": "event"
    },
    {
      "anonymous": false,
      "inputs": [
        {
          "indexed": false,
          "internalType": "string",
          "name": "value",
          "type": "string"
        },
        {
          "indexed": true,
          "internalType": "uint256",
          "name": "id",
          "type": "uint256"
        }
      ],
      "name": "URI",
      "type": "event"
    },
    {
      "inputs": [
        {
          "internalType": "address",
          "name": "account",
          "type": "address"
        },
        {
          "internalType": "uint256",
          "name": "id",
          "type": "uint256"
        }
      ],
      "name": "balanceOf",
      "outputs": [
        {
          "internalType": "uint256",
          "name": "",
          "type": "uint256"
        }
      ],
      "stateMutability": "view",
      "type": "function"
    },
    {
      "inputs": [
        {
          "internalType": "address[]",
          "name": "accounts",
          "type": "address[]"
        },
        {
          "internalType": "uint256[]",
          "name": "ids",
          "type": "uint256[]"
        }
      ],
      "name": "balanceOfBatch",
      "outputs": [
        {
          "internalType": "uint256[]",
          "name": "",
          "type": "uint256[]"
        }
      ],
      "stateMutability": "view",
      "type": "function"
    },
    {
      "inputs": [
        {
          "internalType": "address",
          "name": "_claimer",
          "type": "address"
        },
        {
          "internalType": "uint256",
          "name": "_tokenId",
          "type": "uint256"
        },
        {
          "internalType": "uint256",
          "name": "_amount",
          "type": "uint256"
        },
        {
          "internalType": "bytes",
          "name": "_data",
          "type": "bytes"
        },
        {
          "internalType": "bytes32[]",
          "name": "_proof",
          "type": "bytes32[]"
        }
      ],
      "name": "claim",
      "outputs": [
        {
          "internalType": "bool",
          "name": "success",
          "type": "bool"
        }
      ],
      "stateMutability": "nonpayable",
      "type": "function"
    },
    {
      "inputs": [
        {
          "internalType": "address",
          "name": "",
          "type": "address"
        }
      ],
      "name": "hasClaimed",
      "outputs": [
        {
          "internalType": "bool",
          "name": "",
          "type": "bool"
        }
      ],
      "stateMutability": "view",
      "type": "function"
    },
    {
      "inputs": [
        {
          "internalType": "address",
          "name": "account",
          "type": "address"
        },
        {
          "internalType": "address",
          "name": "operator",
          "type": "address"
        }
      ],
      "name": "isApprovedForAll",
      "outputs": [
        {
          "internalType": "bool",
          "name": "",
          "type": "bool"
        }
      ],
      "stateMutability": "view",
      "type": "function"
    },
    {
      "inputs": [
        {
          "internalType": "address",
          "name": "account",
          "type": "address"
        },
        {
          "internalType": "uint256",
          "name": "id",
          "type": "uint256"
        },
        {
          "internalType": "uint256",
          "name": "amount",
          "type": "uint256"
        },
        {
          "internalType": "bytes",
          "name": "data",
          "type": "bytes"
        }
      ],
      "name": "mint",
      "outputs": [],
      "stateMutability": "nonpayable",
      "type": "function"
    },
    {
      "inputs": [
        {
          "internalType": "address",
          "name": "to",
          "type": "address"
        },
        {
          "internalType": "uint256[]",
          "name": "ids",
          "type": "uint256[]"
        },
        {
          "internalType": "uint256[]",
          "name": "amounts",
          "type": "uint256[]"
        },
        {
          "internalType": "bytes",
          "name": "data",
          "type": "bytes"
        }
      ],
      "name": "mintBatch",
      "outputs": [],
      "stateMutability": "nonpayable",
      "type": "function"
    },
    {
      "inputs": [],
      "name": "owner",
      "outputs": [
        {
          "internalType": "address",
          "name": "",
          "type": "address"
        }
      ],
      "stateMutability": "view",
      "type": "function"
    },
    {
      "inputs": [],
      "name": "renounceOwnership",
      "outputs": [],
      "stateMutability": "nonpayable",
      "type": "function"
    },
    {
      "inputs": [
        {
          "internalType": "address",
          "name": "from",
          "type": "address"
        },
        {
          "internalType": "address",
          "name": "to",
          "type": "address"
        },
        {
          "internalType": "uint256[]",
          "name": "ids",
          "type": "uint256[]"
        },
        {
          "internalType": "uint256[]",
          "name": "values",
          "type": "uint256[]"
        },
        {
          "internalType": "bytes",
          "name": "data",
          "type": "bytes"
        }
      ],
      "name": "safeBatchTransferFrom",
      "outputs": [],
      "stateMutability": "nonpayable",
      "type": "function"
    },
    {
      "inputs": [
        {
          "internalType": "address",
          "name": "from",
          "type": "address"
        },
        {
          "internalType": "address",
          "name": "to",
          "type": "address"
        },
        {
          "internalType": "uint256",
          "name": "id",
          "type": "uint256"
        },
        {
          "internalType": "uint256",
          "name": "value",
          "type": "uint256"
        },
        {
          "internalType": "bytes",
          "name": "data",
          "type": "bytes"
        }
      ],
      "name": "safeTransferFrom",
      "outputs": [],
      "stateMutability": "nonpayable",
      "type": "function"
    },
    {
      "inputs": [
        {
          "internalType": "address",
          "name": "operator",
          "type": "address"
        },
        {
          "internalType": "bool",
          "name": "approved",
          "type": "bool"
        }
      ],
      "name": "setApprovalForAll",
      "outputs": [],
      "stateMutability": "nonpayable",
      "type": "function"
    },
    {
      "inputs": [
        {
          "internalType": "string",
          "name": "newuri",
          "type": "string"
        }
      ],
      "name": "setURI",
      "outputs": [],
      "stateMutability": "nonpayable",
      "type": "function"
    },
    {
      "inputs": [
        {
          "internalType": "bytes4",
          "name": "interfaceId",
          "type": "bytes4"
        }
      ],
      "name": "supportsInterface",
      "outputs": [
        {
          "internalType": "bool",
          "name": "",
          "type": "bool"
        }
      ],
      "stateMutability": "view",
      "type": "function"
    },
    {
      "inputs": [
        {
          "internalType": "address",
          "name": "newOwner",
          "type": "address"
        }
      ],
      "name": "transferOwnership",
      "outputs": [],
      "stateMutability": "nonpayable",
      "type": "function"
    },
    {
      "inputs": [
        {
          "internalType": "uint256",
          "name": "",
          "type": "uint256"
        }
      ],
      "name": "uri",
      "outputs": [
        {
          "internalType": "string",
          "name": "",
          "type": "string"
        }
      ],
      "stateMutability": "view",
      "type": "function"
    }
  ],
  "bytecode": "0x60806040523480156200001157600080fd5b50604051620033e7380380620033e783398181016040528101906200003791906200027a565b8060405180608001604052806050815260200162003397605091396200006381620000fa60201b60201c565b50600073ffffffffffffffffffffffffffffffffffffffff168173ffffffffffffffffffffffffffffffffffffffff1603620000d95760006040517f1e4fbdf7000000000000000000000000000000000000000000000000000000008152600401620000d09190620002d2565b60405180910390fd5b620000ea816200010f60201b60201c565b5081600481905550505062000650565b80600290816200010b919062000569565b5050565b6000600360009054906101000a900473ffffffffffffffffffffffffffffffffffffffff16905081600360006101000a81548173ffffffffffffffffffffffffffffffffffffffff021916908373ffffffffffffffffffffffffffffffffffffffff1602179055508173ffffffffffffffffffffffffffffffffffffffff168173ffffffffffffffffffffffffffffffffffffffff167f8be0079c531659141344cd1fd0a4f28419497f9722a3daafe3b4186f6b6457e060405160405180910390a35050565b600080fd5b6000819050919050565b620001ef81620001da565b8114620001fb57600080fd5b50565b6000815190506200020f81620001e4565b92915050565b600073ffffffffffffffffffffffffffffffffffffffff82169050919050565b6000620002428262000215565b9050919050565b620002548162000235565b81146200026057600080fd5b50565b600081519050620002748162000249565b92915050565b60008060408385031215620002945762000293620001d5565b5b6000620002a485828601620001fe565b9250506020620002b78582860162000263565b9150509250929050565b620002cc8162000235565b82525050565b6000602082019050620002e96000830184620002c1565b92915050565b600081519050919050565b7f4e487b7100000000000000000000000000000000000000000000000000000000600052604160045260246000fd5b7f4e487b7100000000000000000000000000000000000000000000000000000000600052602260045260246000fd5b600060028204905060018216806200037157607f821691505b60208210810362000387576200038662000329565b5b50919050565b60008190508160005260206000209050919050565b60006020601f8301049050919050565b600082821b905092915050565b600060088302620003f17fffffffffffffffffffffffffffffffffffffffffffffffffffffffffffffffff82620003b2565b620003fd8683620003b2565b95508019841693508086168417925050509392505050565b6000819050919050565b6000819050919050565b60006200044a620004446200043e8462000415565b6200041f565b62000415565b9050919050565b6000819050919050565b620004668362000429565b6200047e620004758262000451565b848454620003bf565b825550505050565b600090565b6200049562000486565b620004a28184846200045b565b505050565b5b81811015620004ca57620004be6000826200048b565b600181019050620004a8565b5050565b601f8211156200051957620004e3816200038d565b620004ee84620003a2565b81016020851015620004fe578190505b620005166200050d85620003a2565b830182620004a7565b50505b505050565b600082821c905092915050565b60006200053e600019846008026200051e565b1980831691505092915050565b60006200055983836200052b565b9150826002028217905092915050565b6200057482620002ef565b67ffffffffffffffff81111562000590576200058f620002fa565b5b6200059c825462000358565b620005a9828285620004ce565b600060209050601f831160018114620005e15760008415620005cc578287015190505b620005d885826200054b565b86555062000648565b601f198416620005f1866200038d565b60005b828110156200061b57848901518255600182019150602085019450602081019050620005f4565b868310156200063b578489015162000637601f8916826200052b565b8355505b6001600288020188555050505b505050505050565b612d3780620006606000396000f3fe608060405234801561001057600080fd5b50600436106100ff5760003560e01c8063715018a611610097578063a22cb46511610066578063a22cb465146102bc578063e985e9c5146102d8578063f242432a14610308578063f2fde38b14610324576100ff565b8063715018a614610248578063731133e91461025257806373b2e80e1461026e5780638da5cb5b1461029e576100ff565b80631f7fdffa116100d35780631f7fdffa146101b05780632eb2c2d6146101cc5780634e1273f4146101e85780634f5827fe14610218576100ff565b8062fdd58e1461010457806301ffc9a71461013457806302fe5305146101645780630e89341c14610180575b600080fd5b61011e60048036038101906101199190611a3f565b610340565b60405161012b9190611a8e565b60405180910390f35b61014e60048036038101906101499190611b01565b61039a565b60405161015b9190611b49565b60405180910390f35b61017e60048036038101906101799190611caa565b61047c565b005b61019a60048036038101906101959190611cf3565b610490565b6040516101a79190611d9f565b60405180910390f35b6101ca60048036038101906101c59190611f2a565b610524565b005b6101e660048036038101906101e19190611fe5565b61053e565b005b61020260048036038101906101fd9190612177565b6105e6565b60405161020f91906122ad565b60405180910390f35b610232600480360381019061022d919061232a565b6106ef565b60405161023f9190611b49565b60405180910390f35b610250610871565b005b61026c600480360381019061026791906123e0565b610885565b005b61028860048036038101906102839190612463565b61089f565b6040516102959190611b49565b60405180910390f35b6102a66108bf565b6040516102b3919061249f565b60405180910390f35b6102d660048036038101906102d191906124e6565b6108e9565b005b6102f260048036038101906102ed9190612526565b6108ff565b6040516102ff9190611b49565b60405180910390f35b610322600480360381019061031d9190612566565b610993565b005b61033e60048036038101906103399190612463565b610a3b565b005b600080600083815260200190815260200160002060008473ffffffffffffffffffffffffffffffffffffffff1673ffffffffffffffffffffffffffffffffffffffff16815260200190815260200160002054905092915050565b60007fd9b67a26000000000000000000000000000000000000000000000000000000007bffffffffffffffffffffffffffffffffffffffffffffffffffffffff1916827bffffffffffffffffffffffffffffffffffffffffffffffffffffffff1916148061046557507f0e89341c000000000000000000000000000000000000000000000000000000007bffffffffffffffffffffffffffffffffffffffffffffffffffffffff1916827bffffffffffffffffffffffffffffffffffffffffffffffffffffffff1916145b80610475575061047482610ac1565b5b9050919050565b610484610b2b565b61048d81610bb2565b50565b60606002805461049f9061262c565b80601f01602080910402602001604051908101604052809291908181526020018280546104cb9061262c565b80156105185780601f106104ed57610100808354040283529160200191610518565b820191906000526020600020905b8154815290600101906020018083116104fb57829003601f168201915b50505050509050919050565b61052c610b2b565b61053884848484610bc5565b50505050565b6000610548610c4b565b90508073ffffffffffffffffffffffffffffffffffffffff168673ffffffffffffffffffffffffffffffffffffffff161415801561058d575061058b86826108ff565b155b156105d15780866040517fe237d9220000000000000000000000000000000000000000000000000000000081526004016105c892919061265d565b60405180910390fd5b6105de8686868686610c53565b505050505050565b6060815183511461063257815183516040517f5b059991000000000000000000000000000000000000000000000000000000008152600401610629929190612686565b60405180910390fd5b6000835167ffffffffffffffff81111561064f5761064e611b7f565b5b60405190808252806020026020018201604052801561067d5781602001602082028036833780820191505090505b50905060005b84518110156106e4576106ba6106a28287610d4b90919063ffffffff16565b6106b58387610d5f90919063ffffffff16565b610340565b8282815181106106cd576106cc6126af565b5b602002602001018181525050806001019050610683565b508091505092915050565b6000600560008873ffffffffffffffffffffffffffffffffffffffff1673ffffffffffffffffffffffffffffffffffffffff16815260200190815260200160002060009054906101000a900460ff161561077e576040517f08c379a00000000000000000000000000000000000000000000000000000000081526004016107759061272a565b60405180910390fd5b600087866040516020016107939291906127b3565b60405160208183030381529060405280519060200120905060006107bb858560045485610d73565b9050806107fd576040517f08c379a00000000000000000000000000000000000000000000000000000000081526004016107f49061282b565b60405180910390fd5b6001600560008b73ffffffffffffffffffffffffffffffffffffffff1673ffffffffffffffffffffffffffffffffffffffff16815260200190815260200160002060006101000a81548160ff02191690831515021790555061086189898989610dcb565b6001925050509695505050505050565b610879610b2b565b6108836000610e64565b565b61088d610b2b565b61089984848484610dcb565b50505050565b60056020528060005260406000206000915054906101000a900460ff1681565b6000600360009054906101000a900473ffffffffffffffffffffffffffffffffffffffff16905090565b6108fb6108f4610c4b565b8383610f2a565b5050565b6000600160008473ffffffffffffffffffffffffffffffffffffffff1673ffffffffffffffffffffffffffffffffffffffff16815260200190815260200160002060008373ffffffffffffffffffffffffffffffffffffffff1673ffffffffffffffffffffffffffffffffffffffff16815260200190815260200160002060009054906101000a900460ff16905092915050565b600061099d610c4b565b90508073ffffffffffffffffffffffffffffffffffffffff168673ffffffffffffffffffffffffffffffffffffffff16141580156109e257506109e086826108ff565b155b15610a265780866040517fe237d922000000000000000000000000000000000000000000000000000000008152600401610a1d92919061265d565b60405180910390fd5b610a33868686868661109a565b505050505050565b610a43610b2b565b600073ffffffffffffffffffffffffffffffffffffffff168173ffffffffffffffffffffffffffffffffffffffff1603610ab55760006040517f1e4fbdf7000000000000000000000000000000000000000000000000000000008152600401610aac919061249f565b60405180910390fd5b610abe81610e64565b50565b60007f01ffc9a7000000000000000000000000000000000000000000000000000000007bffffffffffffffffffffffffffffffffffffffffffffffffffffffff1916827bffffffffffffffffffffffffffffffffffffffffffffffffffffffff1916149050919050565b610b33610c4b565b73ffffffffffffffffffffffffffffffffffffffff16610b516108bf565b73ffffffffffffffffffffffffffffffffffffffff1614610bb057610b74610c4b565b6040517f118cdaa7000000000000000000000000000000000000000000000000000000008152600401610ba7919061249f565b60405180910390fd5b565b8060029081610bc191906129f7565b5050565b600073ffffffffffffffffffffffffffffffffffffffff168473ffffffffffffffffffffffffffffffffffffffff1603610c375760006040517f57f447ce000000000000000000000000000000000000000000000000000000008152600401610c2e919061249f565b60405180910390fd5b610c456000858585856111a5565b50505050565b600033905090565b600073ffffffffffffffffffffffffffffffffffffffff168473ffffffffffffffffffffffffffffffffffffffff1603610cc55760006040517f57f447ce000000000000000000000000000000000000000000000000000000008152600401610cbc919061249f565b60405180910390fd5b600073ffffffffffffffffffffffffffffffffffffffff168573ffffffffffffffffffffffffffffffffffffffff1603610d375760006040517f01a83514000000000000000000000000000000000000000000000000000000008152600401610d2e919061249f565b60405180910390fd5b610d4485858585856111a5565b5050505050565b600060208202602084010151905092915050565b600060208202602084010151905092915050565b60008315610dbe578360051b8501855b600115610dbb578035841160051b8481528135602082185260406000209450602082019150828210610db55750610dbb565b50610d83565b50505b8282149050949350505050565b600073ffffffffffffffffffffffffffffffffffffffff168473ffffffffffffffffffffffffffffffffffffffff1603610e3d5760006040517f57f447ce000000000000000000000000000000000000000000000000000000008152600401610e34919061249f565b60405180910390fd5b600080610e4a8585611257565b91509150610e5c6000878484876111a5565b505050505050565b6000600360009054906101000a900473ffffffffffffffffffffffffffffffffffffffff16905081600360006101000a81548173ffffffffffffffffffffffffffffffffffffffff021916908373ffffffffffffffffffffffffffffffffffffffff1602179055508173ffffffffffffffffffffffffffffffffffffffff168173ffffffffffffffffffffffffffffffffffffffff167f8be0079c531659141344cd1fd0a4f28419497f9722a3daafe3b4186f6b6457e060405160405180910390a35050565b600073ffffffffffffffffffffffffffffffffffffffff168273ffffffffffffffffffffffffffffffffffffffff1603610f9c5760006040517fced3e100000000000000000000000000000000000000000000000000000000008152600401610f93919061249f565b60405180910390fd5b80600160008573ffffffffffffffffffffffffffffffffffffffff1673ffffffffffffffffffffffffffffffffffffffff16815260200190815260200160002060008473ffffffffffffffffffffffffffffffffffffffff1673ffffffffffffffffffffffffffffffffffffffff16815260200190815260200160002060006101000a81548160ff0219169083151502179055508173ffffffffffffffffffffffffffffffffffffffff168373ffffffffffffffffffffffffffffffffffffffff167f17307eab39ab6107e8899845ad3d59bd9653f200f220920489ca2b5937696c318360405161108d9190611b49565b60405180910390a3505050565b600073ffffffffffffffffffffffffffffffffffffffff168473ffffffffffffffffffffffffffffffffffffffff160361110c5760006040517f57f447ce000000000000000000000000000000000000000000000000000000008152600401611103919061249f565b60405180910390fd5b600073ffffffffffffffffffffffffffffffffffffffff168573ffffffffffffffffffffffffffffffffffffffff160361117e5760006040517f01a83514000000000000000000000000000000000000000000000000000000008152600401611175919061249f565b60405180910390fd5b60008061118b8585611257565b9150915061119c87878484876111a5565b50505050505050565b6111b185858585611287565b600073ffffffffffffffffffffffffffffffffffffffff168473ffffffffffffffffffffffffffffffffffffffff16146112505760006111ef610c4b565b9050600184510361123f576000611210600086610d5f90919063ffffffff16565b90506000611228600086610d5f90919063ffffffff16565b905061123883898985858961162f565b505061124e565b61124d8187878787876117e3565b5b505b5050505050565b60608060405191506001825283602083015260408201905060018152826020820152604081016040529250929050565b80518251146112d157815181516040517f5b0599910000000000000000000000000000000000000000000000000000000081526004016112c8929190612686565b60405180910390fd5b60006112db610c4b565b905060005b83518110156114ea5760006112fe8286610d5f90919063ffffffff16565b905060006113158386610d5f90919063ffffffff16565b9050600073ffffffffffffffffffffffffffffffffffffffff168873ffffffffffffffffffffffffffffffffffffffff161461144257600080600084815260200190815260200160002060008a73ffffffffffffffffffffffffffffffffffffffff1673ffffffffffffffffffffffffffffffffffffffff168152602001908152602001600020549050818110156113ea57888183856040517f03dee4c50000000000000000000000000000000000000000000000000000000081526004016113e19493929190612ac9565b60405180910390fd5b81810360008085815260200190815260200160002060008b73ffffffffffffffffffffffffffffffffffffffff1673ffffffffffffffffffffffffffffffffffffffff16815260200190815260200160002081905550505b600073ffffffffffffffffffffffffffffffffffffffff168773ffffffffffffffffffffffffffffffffffffffff16146114dd578060008084815260200190815260200160002060008973ffffffffffffffffffffffffffffffffffffffff1673ffffffffffffffffffffffffffffffffffffffff16815260200190815260200160002060008282546114d59190612b3d565b925050819055505b50508060010190506112e0565b5060018351036115a957600061150a600085610d5f90919063ffffffff16565b90506000611522600085610d5f90919063ffffffff16565b90508573ffffffffffffffffffffffffffffffffffffffff168773ffffffffffffffffffffffffffffffffffffffff168473ffffffffffffffffffffffffffffffffffffffff167fc3d58168c5ae7397731d063d5bbf3d657854427343f4c083240f7aacaa2d0f62858560405161159a929190612686565b60405180910390a45050611628565b8373ffffffffffffffffffffffffffffffffffffffff168573ffffffffffffffffffffffffffffffffffffffff168273ffffffffffffffffffffffffffffffffffffffff167f4a39dc06d4c0dbc64b70af90fd698a233a518aa5d07e595d983b8c0526c8f7fb868660405161161f929190612b71565b60405180910390a45b5050505050565b60008473ffffffffffffffffffffffffffffffffffffffff163b11156117db578373ffffffffffffffffffffffffffffffffffffffff1663f23a6e6187878686866040518663ffffffff1660e01b8152600401611690959493929190612bfd565b6020604051808303816000875af19250505080156116cc57506040513d601f19601f820116820180604052508101906116c99190612c6c565b60015b611750573d80600081146116fc576040519150601f19603f3d011682016040523d82523d6000602084013e611701565b606091505b50600081510361174857846040517f57f447ce00000000000000000000000000000000000000000000000000000000815260040161173f919061249f565b60405180910390fd5b805181602001fd5b63f23a6e6160e01b7bffffffffffffffffffffffffffffffffffffffffffffffffffffffff1916817bffffffffffffffffffffffffffffffffffffffffffffffffffffffff1916146117d957846040517f57f447ce0000000000000000000000000000000000000000000000000000000081526004016117d0919061249f565b60405180910390fd5b505b505050505050565b60008473ffffffffffffffffffffffffffffffffffffffff163b111561198f578373ffffffffffffffffffffffffffffffffffffffff1663bc197c8187878686866040518663ffffffff1660e01b8152600401611844959493929190612c99565b6020604051808303816000875af192505050801561188057506040513d601f19601f8201168201806040525081019061187d9190612c6c565b60015b611904573d80600081146118b0576040519150601f19603f3d011682016040523d82523d6000602084013e6118b5565b606091505b5060008151036118fc57846040517f57f447ce0000000000000000000000000000000000000000000000000000000081526004016118f3919061249f565b60405180910390fd5b805181602001fd5b63bc197c8160e01b7bffffffffffffffffffffffffffffffffffffffffffffffffffffffff1916817bffffffffffffffffffffffffffffffffffffffffffffffffffffffff19161461198d57846040517f57f447ce000000000000000000000000000000000000000000000000000000008152600401611984919061249f565b60405180910390fd5b505b505050505050565b6000604051905090565b600080fd5b600080fd5b600073ffffffffffffffffffffffffffffffffffffffff82169050919050565b60006119d6826119ab565b9050919050565b6119e6816119cb565b81146119f157600080fd5b50565b600081359050611a03816119dd565b92915050565b6000819050919050565b611a1c81611a09565b8114611a2757600080fd5b50565b600081359050611a3981611a13565b92915050565b60008060408385031215611a5657611a556119a1565b5b6000611a64858286016119f4565b9250506020611a7585828601611a2a565b9150509250929050565b611a8881611a09565b82525050565b6000602082019050611aa36000830184611a7f565b92915050565b60007fffffffff0000000000000000000000000000000000000000000000000000000082169050919050565b611ade81611aa9565b8114611ae957600080fd5b50565b600081359050611afb81611ad5565b92915050565b600060208284031215611b1757611b166119a1565b5b6000611b2584828501611aec565b91505092915050565b60008115159050919050565b611b4381611b2e565b82525050565b6000602082019050611b5e6000830184611b3a565b92915050565b600080fd5b600080fd5b6000601f19601f8301169050919050565b7f4e487b7100000000000000000000000000000000000000000000000000000000600052604160045260246000fd5b611bb782611b6e565b810181811067ffffffffffffffff82111715611bd657611bd5611b7f565b5b80604052505050565b6000611be9611997565b9050611bf58282611bae565b919050565b600067ffffffffffffffff821115611c1557611c14611b7f565b5b611c1e82611b6e565b9050602081019050919050565b82818337600083830152505050565b6000611c4d611c4884611bfa565b611bdf565b905082815260208101848484011115611c6957611c68611b69565b5b611c74848285611c2b565b509392505050565b600082601f830112611c9157611c90611b64565b5b8135611ca1848260208601611c3a565b91505092915050565b600060208284031215611cc057611cbf6119a1565b5b600082013567ffffffffffffffff811115611cde57611cdd6119a6565b5b611cea84828501611c7c565b91505092915050565b600060208284031215611d0957611d086119a1565b5b6000611d1784828501611a2a565b91505092915050565b600081519050919050565b600082825260208201905092915050565b60005b83811015611d5a578082015181840152602081019050611d3f565b60008484015250505050565b6000611d7182611d20565b611d7b8185611d2b565b9350611d8b818560208601611d3c565b611d9481611b6e565b840191505092915050565b60006020820190508181036000830152611db98184611d66565b905092915050565b600067ffffffffffffffff821115611ddc57611ddb611b7f565b5b602082029050602081019050919050565b600080fd5b6000611e05611e0084611dc1565b611bdf565b90508083825260208201905060208402830185811115611e2857611e27611ded565b5b835b81811015611e515780611e3d8882611a2a565b845260208401935050602081019050611e2a565b5050509392505050565b600082601f830112611e7057611e6f611b64565b5b8135611e80848260208601611df2565b91505092915050565b600067ffffffffffffffff821115611ea457611ea3611b7f565b5b611ead82611b6e565b9050602081019050919050565b6000611ecd611ec884611e89565b611bdf565b905082815260208101848484011115611ee957611ee8611b69565b5b611ef4848285611c2b565b509392505050565b600082601f830112611f1157611f10611b64565b5b8135611f21848260208601611eba565b91505092915050565b60008060008060808587031215611f4457611f436119a1565b5b6000611f52878288016119f4565b945050602085013567ffffffffffffffff811115611f7357611f726119a6565b5b611f7f87828801611e5b565b935050604085013567ffffffffffffffff811115611fa057611f9f6119a6565b5b611fac87828801611e5b565b925050606085013567ffffffffffffffff811115611fcd57611fcc6119a6565b5b611fd987828801611efc565b91505092959194509250565b600080600080600060a08688031215612001576120006119a1565b5b600061200f888289016119f4565b9550506020612020888289016119f4565b945050604086013567ffffffffffffffff811115612041576120406119a6565b5b61204d88828901611e5b565b935050606086013567ffffffffffffffff81111561206e5761206d6119a6565b5b61207a88828901611e5b565b925050608086013567ffffffffffffffff81111561209b5761209a6119a6565b5b6120a788828901611efc565b9150509295509295909350565b600067ffffffffffffffff8211156120cf576120ce611b7f565b5b602082029050602081019050919050565b60006120f36120ee846120b4565b611bdf565b9050808382526020820190506020840283018581111561211657612115611ded565b5b835b8181101561213f578061212b88826119f4565b845260208401935050602081019050612118565b5050509392505050565b600082601f83011261215e5761215d611b64565b5b813561216e8482602086016120e0565b91505092915050565b6000806040838503121561218e5761218d6119a1565b5b600083013567ffffffffffffffff8111156121ac576121ab6119a6565b5b6121b885828601612149565b925050602083013567ffffffffffffffff8111156121d9576121d86119a6565b5b6121e585828601611e5b565b9150509250929050565b600081519050919050565b600082825260208201905092915050565b6000819050602082019050919050565b61222481611a09565b82525050565b6000612236838361221b565b60208301905092915050565b6000602082019050919050565b600061225a826121ef565b61226481856121fa565b935061226f8361220b565b8060005b838110156122a0578151612287888261222a565b975061229283612242565b925050600181019050612273565b5085935050505092915050565b600060208201905081810360008301526122c7818461224f565b905092915050565b600080fd5b60008083601f8401126122ea576122e9611b64565b5b8235905067ffffffffffffffff811115612307576123066122cf565b5b60208301915083602082028301111561232357612322611ded565b5b9250929050565b60008060008060008060a08789031215612347576123466119a1565b5b600061235589828a016119f4565b965050602061236689828a01611a2a565b955050604061237789828a01611a2a565b945050606087013567ffffffffffffffff811115612398576123976119a6565b5b6123a489828a01611efc565b935050608087013567ffffffffffffffff8111156123c5576123c46119a6565b5b6123d189828a016122d4565b92509250509295509295509295565b600080600080608085870312156123fa576123f96119a1565b5b6000612408878288016119f4565b945050602061241987828801611a2a565b935050604061242a87828801611a2a565b925050606085013567ffffffffffffffff81111561244b5761244a6119a6565b5b61245787828801611efc565b91505092959194509250565b600060208284031215612479576124786119a1565b5b6000612487848285016119f4565b91505092915050565b612499816119cb565b82525050565b60006020820190506124b46000830184612490565b92915050565b6124c381611b2e565b81146124ce57600080fd5b50565b6000813590506124e0816124ba565b92915050565b600080604083850312156124fd576124fc6119a1565b5b600061250b858286016119f4565b925050602061251c858286016124d1565b9150509250929050565b6000806040838503121561253d5761253c6119a1565b5b600061254b858286016119f4565b925050602061255c858286016119f4565b9150509250929050565b600080600080600060a08688031215612582576125816119a1565b5b6000612590888289016119f4565b95505060206125a1888289016119f4565b94505060406125b288828901611a2a565b93505060606125c388828901611a2a565b925050608086013567ffffffffffffffff8111156125e4576125e36119a6565b5b6125f088828901611efc565b9150509295509295909350565b7f4e487b7100000000000000000000000000000000000000000000000000000000600052602260045260246000fd5b6000600282049050600182168061264457607f821691505b602082108103612657576126566125fd565b5b50919050565b60006040820190506126726000830185612490565b61267f6020830184612490565b9392505050565b600060408201905061269b6000830185611a7f565b6126a86020830184611a7f565b9392505050565b7f4e487b7100000000000000000000000000000000000000000000000000000000600052603260045260246000fd5b7f616c726561647920636c61696d65640000000000000000000000000000000000600082015250565b6000612714600f83611d2b565b915061271f826126de565b602082019050919050565b6000602082019050818103600083015261274381612707565b9050919050565b60008160601b9050919050565b60006127628261274a565b9050919050565b600061277482612757565b9050919050565b61278c612787826119cb565b612769565b82525050565b6000819050919050565b6127ad6127a882611a09565b612792565b82525050565b60006127bf828561277b565b6014820191506127cf828461279c565b6020820191508190509392505050565b7f6e6f742077686974656c69737465640000000000000000000000000000000000600082015250565b6000612815600f83611d2b565b9150612820826127df565b602082019050919050565b6000602082019050818103600083015261284481612808565b9050919050565b60008190508160005260206000209050919050565b60006020601f8301049050919050565b600082821b905092915050565b6000600883026128ad7fffffffffffffffffffffffffffffffffffffffffffffffffffffffffffffffff82612870565b6128b78683612870565b95508019841693508086168417925050509392505050565b6000819050919050565b60006128f46128ef6128ea84611a09565b6128cf565b611a09565b9050919050565b6000819050919050565b61290e836128d9565b61292261291a826128fb565b84845461287d565b825550505050565b600090565b61293761292a565b612942818484612905565b505050565b5b818110156129665761295b60008261292f565b600181019050612948565b5050565b601f8211156129ab5761297c8161284b565b61298584612860565b81016020851015612994578190505b6129a86129a085612860565b830182612947565b50505b505050565b600082821c905092915050565b60006129ce600019846008026129b0565b1980831691505092915050565b60006129e783836129bd565b9150826002028217905092915050565b612a0082611d20565b67ffffffffffffffff811115612a1957612a18611b7f565b5b612a23825461262c565b612a2e82828561296a565b600060209050601f831160018114612a615760008415612a4f578287015190505b612a5985826129db565b865550612ac1565b601f198416612a6f8661284b565b60005b82811015612a9757848901518255600182019150602085019450602081019050612a72565b86831015612ab45784890151612ab0601f8916826129bd565b8355505b6001600288020188555050505b505050505050565b6000608082019050612ade6000830187612490565b612aeb6020830186611a7f565b612af86040830185611a7f565b612b056060830184611a7f565b95945050505050565b7f4e487b7100000000000000000000000000000000000000000000000000000000600052601160045260246000fd5b6000612b4882611a09565b9150612b5383611a09565b9250828201905080821115612b6b57612b6a612b0e565b5b92915050565b60006040820190508181036000830152612b8b818561224f565b90508181036020830152612b9f818461224f565b90509392505050565b600081519050919050565b600082825260208201905092915050565b6000612bcf82612ba8565b612bd98185612bb3565b9350612be9818560208601611d3c565b612bf281611b6e565b840191505092915050565b600060a082019050612c126000830188612490565b612c1f6020830187612490565b612c2c6040830186611a7f565b612c396060830185611a7f565b8181036080830152612c4b8184612bc4565b90509695505050505050565b600081519050612c6681611ad5565b92915050565b600060208284031215612c8257612c816119a1565b5b6000612c9084828501612c57565b91505092915050565b600060a082019050612cae6000830188612490565b612cbb6020830187612490565b8181036040830152612ccd818661224f565b90508181036060830152612ce1818561224f565b90508181036080830152612cf58184612bc4565b9050969550505050505056fea2646970667358221220b4b1c1f378aca398e81c89aaf0cb741b7d4a7fea89eafe5334cfb4eae830c4e364736f6c6343000818003368747470733a2f2f676174657761792e70696e6174612e636c6f75642f697066732f516d5a68334357517a3669376d3736707236514e61555738745066704d4e707366756a7362354a36454166445569",
  "linkReferences": {},
  "deployedLinkReferences": {}
}